:020000040800F2
:1000000000800020B1800008696E00086D6E000855
:10001000856E0008876E0008896E000800000000E9
:10002000000000000000000000000000C1090008FE
:100030008B6E000800000000610A0008050200083D
:100040000181000801810008018100080181000888
:10005000018100088D6E00080181000801810008FF
:10006000018100080181000801810008916E0008EB
:100070000181000801810008018100080181000858
:100080000181000801810008018100080181000848
:1000900000000000018100080181000801810008C2
:1000A0000181000801810008018100080181000828
:1000B00001810008A16E000801810008018100088B
:1000C0000181000801810008018100080181000808
:1000D000B16E00080181000801810008018100085B
:1000E00001810008018100080181000801810008E8
:1000F00001810008000000000000000001810008EC
:1001000001810008018100080181000801810008C7
:1001100001810008018100080181000801810008B7
:1001200001810008018100080181000801810008A7
:080130000181000801810008B3
:10014000034613F8012B002AFBD1181A0138704717
:1001500053B94AB9002908BF00281CBF4FF0FF312E
:100160004FF0FF3000F00CB8ADF1080C6DE904CE93
:1001700008F002F8DDF804E0DDE9022304B070477E
:10018000704700BF10B5054C237833B9044B13B149
:100190000448AFF300800123237010BD100000203D
:1001A000000000007084000808B5034B1BB1034930
:1001B0000348AFF3008008BD0000000014000020D9
:1001C0007084000872B6FEE772B6FEE708B506F066
:1001D0009BFE06F07BFE08BD10B5EFF3058414B15D
:1001E0000124204610BD07F013FC0128F9D0EFF3DD
:1001F00010832BB9EFF31184002CF2D00124F0E727
:100200000124EEE708B54FF0E0231B6907F000FC7E
:10021000012800D108BD00F045FCFBE708B5FFF759
:10022000DBFF48B907F0F4FB012808D1074B186839
:1002300040B901221A6008BD6FF00500FBE74FF0DE
:10024000FF30F8E74FF0FF30F5E700BFE40600208D
:1002500010B5FFF7C1FF88B907F0DAFB012810D10C
:100260000B4B1B68012B0FD100240A4BDC77084B8A
:1002700002221A6007F06EF8204610BD6FF00500EC
:10028000FBE74FF0FF30F8E74FF0FF30F5E700BF36
:10029000E406002000ED00E0F0B587B006460D460C
:1002A000144600220592FFF797FF18BB16B3002CE7
:1002B00038D02168A3692BB11F46013B372B02D9E7
:1002C000002018E01827636813F0010F43D160691C
:1002D00098B14FEA900EA36843B1E2685B2A05D952
:1002E000D4F810C0BCF1000F00D080B943B14FF07A
:1002F000FF3313B3059807B0F0BD4FF0800EEAE767
:10030000E368ABB92369B3B14FF0FF33F1E7029370
:10031000CDF804C000972B467246304606F09AFF8F
:100320000590E7E72146002318274FF0800EE0E70D
:100330004FF0FF33DDE70023DBE705AB01930097C8
:100340002B461FFA8EF2304606F0CFFF0128D1D09F
:1003500000230593CEE70020CDE710B50446FFF754
:100360003BFF38B90CB9002010BD204607F0B2F9A8
:100370000020F9E76FF00500F6E70000034B03608B
:10038000034B0B6080231360704700BF880600207A
:1003900088040020034B0360034B0B604FF4807311
:1003A000136070472C0400202C000020104A12F02B
:1003B000070F1AD0D11D21F00701C1F58043134466
:1003C0000A460C480260002141601344083B23F0B8
:1003D00007030948036059601960991A5160136056
:1003E000064B1960064B196070474FF48043E8E7ED
:1003F00004070020FC060020F8060020F00600207C
:10040000F4060020154B1A461B688342FBD3516843
:1004100002EB010C844509D0416800EB010C6345F7
:1004200009D00360904218D01060704740680144C2
:1004300051601046F0E710B4094C2468A3420AD07A
:100440005B681944416013681B680360904200D0E8
:10045000106010BC70470460F8E77047FC0600208D
:10046000F806002070B5054606F0C4FF3E4B1B6839
:100470009BB1B5B115F1090F12D8083515F0070376
:1004800005D0C3F10802093BAB4212D31544002D3D
:1004900007DA07F079F8002610E0FFF787FFE8E7B2
:1004A000002545B1314B1B68AB4215D3304A146867
:1004B00018E00025F5E707F067F80026FFF784FE4F
:1004C00016F0070F4ED04FF0500383F31188BFF39F
:1004D0006F8FBFF34F8FFEE707F056F80026EDE76A
:1004E00022461C466368AB4202D22368002BF7D138
:1004F0001D4B1B68A34214D016680836236813608E
:1005000063685B1B102B14D9601910F0070F0CD017
:100510004FF0500383F31188BFF36F8FBFF34F8FFA
:10052000FEE707F031F80026C8E743606560FFF793
:1005300069FF62680D490B689B1A0B600D490968D9
:100540008B4201D20B490B6042F0004262600023F3
:100550002360094A13680133136007F015F8002E71
:10056000AED1ABE7304670BDF8060020F40600209F
:10057000FC060020F0060020EC06002090B338B501
:100580000446A0F1080550F8043C002B08DB4FF0AE
:10059000500383F31188BFF36F8FBFF34F8FFEE7D4
:1005A00050F8082C42B14FF0500383F31188BFF389
:1005B0006F8FBFF34F8FFEE723F0004340F8043CFA
:1005C00006F018FF54F8041C074A13680B44136024
:1005D0002846FFF717FF054A13680133136006F03A
:1005E000D3FF38BD704700BFF4060020E8060020A6
:1005F00000F1080343604FF0FF328260C360036183
:1006000000230360704700230361704730B40D6816
:10061000B5F1FF3F11D000F108031C465B681A6872
:10062000AA42FAD963684B6099608C606160086186
:1006300003680133036030BC70470469F2E7036963
:10064000416882688A60416851605A68824206D077
:10065000002202611A68013A1A60186870478268BD
:100660005A60F5E784B04FF0B043DA6C42F0010213
:10067000DA64DA6C02F001020392039ADA6C42F057
:100680000402DA64DA6C02F004020292029ADA6C72
:1006900042F00202DA64DB6C03F002030193019B77
:1006A00004B0704708B5FFF791FD054B00221146D5
:1006B000104602F063FA0120FFF74FFEF5E700BF96
:1006C000AC84000800B583B04FF0B0439A6C42F0A0
:1006D00004029A649A6C02F004020192019A9A6CE4
:1006E00042F001029A649B6C03F001030093009BAB
:1006F000002205210B2002F007FE0B2002F014FE61
:1007000003B05DF804FB000008B50268034B9A4291
:1007100000D008BD02F086FDFBE700BF00480140A5
:1007200072B6FEE730B59BB008AD482200212846DE
:1007300007F0E7FC002402940394049405940694C3
:10074000079403F089FA4FF0B042D2F8903023F0CA
:100750001803C2F8903002F58062136823F4C06376
:1007600043F480631360136803F4C0630193019B37
:100770002C23089381230B9301231093119460225F
:1007800012920F940E931394284603F08DFB68B9D0
:100790004F23029300210391049105910691079143
:1007A00002A803F0B3FE18B91BB030BDFFF7B8FFC5
:1007B000FFF7B6FF10B592B000240D940E940F947D
:1007C000109411940C942C22214601A807F099FC56
:1007D00029482A4B036044607F238360FF23C36062
:1007E0000461446184614FF08043C36104624462E8
:1007F00004F0B8F9002837D100238DF834308DF893
:1008000035308DF836301093119301220DA91A4816
:1008100004F01AFA50BB01228DF830208DF83120F7
:100820008DF8322000238DF833300CA9124804F0E3
:1008300077FAE8B900238DF804308DF805308DF88B
:1008400006300293049305930693079309930122BC
:100850008DF828204FF480730B9301A9064804F00B
:10086000B5FA38B912B010BDFFF75AFFFFF758FFBD
:10087000FFF756FFFFF754FF08480020002800400C
:1008800008B504481023036004F048FC00B908BD13
:10089000FFF746FFFC47002008B51548154B0360DD
:1008A0004FF4E133436000238360C36003610C2293
:1008B00042618361C36103624362836206F0B1F8FF
:1008C00070B900210A4806F05BFA58B900210848BF
:1008D00006F07BFA40B9064806F033FA30B908BD95
:1008E000FFF71EFFFFF71CFFFFF71AFFFFF718FFC8
:1008F000684700200038014008B502F07DFCFFF792
:1009000011FFFFF7AFFEFFF7DDFEFFF753FFFFF725
:10091000C3FFFFF783FC054A00210548FFF7BCFC35
:10092000044B1860FFF794FCFEE700BF3885000811
:10093000A50600080447002082B0002301930D4B58
:100940001B68B3F1FF3F08D04FF0500383F31188C9
:10095000BFF36F8FBFF34F8FFEE74FF0500383F36A
:100960001188BFF36F8FBFF34F8F019B002BFCD01B
:1009700002B070470000002006480068006880F35D
:10098000088862B661B6BFF34F8FBFF36F8F00DF89
:1009900000BF000008ED00E04FF0807340F8043C19
:1009A00021F0010140F8081C034B40F80C3C40F8D2
:1009B000202C4038704700BF3909000800000000B3
:1009C000074B19680868B0E8F00F80F30988BFF397
:1009D0006F8F4FF0000080F311884EF00D0E7047BE
:1009E000AC5200204FF0500383F31188BFF36F8F98
:1009F000BFF34F8F0B4A136801331360012B00D0F4
:100A000070474FF0E023D3F8043D13F0FF0FF7D009
:100A10004FF0500383F31188BFF36F8FBFF34F8FF5
:100A2000FEE700BF00000020094B1B6843B94FF0F0
:100A3000500383F31188BFF36F8FBFF34F8FFEE72F
:100A4000013B034A13600BB983F31188704700BF61
:100A50000000002000000000000000000000000076
:100A6000EFF30980BFF36F8F0D4B1A6820E9F00F89
:100A700010602DE908404FF0500080F3118806F017
:100A80004FFE4FF0000080F31188BDE80840196860
:100A90000868B0E8F00F80F30988BFF36F8F7047E4
:100AA000AC52002008B54FF0500383F31188BFF318
:100AB0006F8FBFF34F8F06F0ABFC28B14FF0E023F0
:100AC0004FF08052C3F8042D002383F3118808BD32
:100AD0004FF0E022002313619361054B1B68054929
:100AE000A1FB03139B09013B53610723136170476B
:100AF0000C000020D34D621010B582B0002301938A
:100B0000354B1A78D2B28DF80220FF221A701B786A
:100B1000DBB28DF803309DF8033003F050032F4A09
:100B2000137043B94FF0500383F31188BFF36F8FF5
:100B3000BFF34F8FFEE79DF80330DB4313F0500FF8
:100B400011D04FF0500383F31188BFF36F8FBFF3C1
:100B50004F8FFEE7019B013301939DF803305B004B
:100B6000DBB28DF803309DF8033013F0800FF1D124
:100B7000019B082B2CD0019BC3F10703184A13607B
:100B8000174A13681B02136003F4E06313609DF8B7
:100B90000230DBB2104A13704FF0E023D3F8202D5F
:100BA00042F47F02C3F8202DD3F8202D42F07F427B
:100BB000C3F8202DFFF78CFF00240A4B1C60FFF7C1
:100BC000DBFE06F0ADFDFFF7B7FE204602B010BD1C
:100BD000034B00221A60D3E700E400E04448002001
:100BE000404800200000002010B50446FFF7FAFE40
:100BF000A36B23B90124FFF717FF204610BD002483
:100C0000F9E708B50346026C62B10846D968114499
:100C1000D960D3F808C0614501D31968D960D96893
:100C200007F09CFA08BD38B50546FFF7DBFE95F8DE
:100C3000454064B201E0013C64B2002C0ADD6B6AFD
:100C400043B105F1240006F013FE0028F3D006F0AE
:100C5000D9FEF0E7FF2385F84530FFF7E5FEFFF703
:100C6000C1FE95F8444064B201E0013C64B2002C3E
:100C70000ADD2B6943B105F1100006F0F9FD0028EB
:100C8000F3D006F0BFFEF0E7FF2385F84430FFF70E
:100C9000CBFE38BD38B590B10D460446C36B2BB1C1
:100CA000026C0021A2FB032393B999B14FF05003CA
:100CB00083F31188BFF36F8FBFF34F8FFEE74FF0C1
:100CC000500383F31188BFF36F8FBFF34F8FFEE79D
:100CD0000121EAE7FFF786FE2368E26B216C01FB46
:100CE0000230A0600020A0636360013A02FB013380
:100CF000E360FF2384F8443084F84530B5B92369B4
:100D00001BB9FFF791FE012038BD04F1100006F079
:100D1000AFFD0028F5D04FF0E0234FF08052C3F82C
:100D2000042DBFF34F8FBFF36F8FEAE704F110007C
:100D3000FFF75EFC04F12400FFF75AFCE1E738B549
:100D40001D46049C0B4649B92460E06323640121DD
:100D50002046FFF79FFF84F84C5038BD2260F4E72F
:100D600073B110B584B01C4608B192B199B94FF077
:100D7000500383F31188BFF36F8FBFF34F8FFEE7EC
:100D80004FF0500383F31188BFF36F8FBFF34F8F82
:100D9000FEE70029EBD150230393039B502B08D08F
:100DA0004FF0500383F31188BFF36F8FBFF34F8F62
:100DB000FEE7039B012384F8463000949DF8183029
:100DC000FFF7BDFF204604B010BDF0B585B001921D
:100DD00090B10F460446C1B106F01AFE064600BBAC
:100DE000019B002B5ED04FF0500383F31188BFF3BB
:100DF0006F8FBFF34F8FFEE74FF0500383F31188DF
:100E0000BFF36F8FBFF34F8FFEE7036C002BE3D070
:100E10004FF0500383F31188BFF36F8FBFF34F8FF1
:100E2000FEE700263EE039462046FFF7EAFE013D98
:100E3000A563236923B9FFF7F7FD012005B0F0BDD5
:100E400004F1100006F014FD0028F4D04FF0E02368
:100E50004FF08052C3F8042DBFF34F8FBFF36F8F55
:100E6000E9E7FFF7E1FD0020E8E702A806F078FDDA
:100E7000012621E0002384F8443029E0002384F88F
:100E800045302BE02046FFF7CEFE06F07DFB09E063
:100E90002046FFF7C8FE06F077FB2046FFF7A4FECA
:100EA00000283FD1FFF79EFDA56B002DBBD1019B14
:100EB000002BD6D0002ED8D0FFF7B6FD06F09AFA58
:100EC000FFF790FD94F844305BB2B3F1FF3FD1D00F
:100ED00094F845305BB2B3F1FF3FCFD0FFF7A4FDEC
:100EE00001A902A806F048FD0028D1D12046FFF74D
:100EF0007BFE0028C6D0019904F1240006F076FCA0
:100F00002046FFF790FE06F03FFB0028CAD14FF0C5
:100F1000E0234FF08052C3F8042DBFF34F8FBFF38F
:100F20006F8FBFE7002089E728B110B4044631B3C2
:100F3000002003460DE04FF0500383F31188BFF308
:100F40006F8FBFF34F8FFEE70E4800EBC30014E036
:100F50000133072B10D80B4A02EBC3025268A2429E
:100F6000F2D00028F4D1074A52F83320002AEFD1FA
:100F7000044800EBC300EBE708B10160446010BC1B
:100F8000704700BF4848002070B504460D4616461D
:100F9000FFF728FD94F844305BB2B3F1FF3F0DD06A
:100FA00094F845305BB2B3F1FF3F0BD0FFF73CFD47
:100FB000A36B5BB12046FFF736FE70BD002384F8BB
:100FC0004430EDE7002384F84530EFE73246294608
:100FD00004F1240006F022FCECE701207047000039
:100FE0000A2807D8DFE800F0200B11171A1C1E068C
:100FF000080E14000020704742F6B100704743F617
:101000000950704745F26110704747F6122070474B
:101010004AF2C32070474FF224407047044870479B
:10102000044870470448704741F68460704700BF29
:1010300048E8010090D0030020A107009DF80410AB
:10104000D20053B908231A44183241B102239DF843
:101050000000184402EBC00070470023F3E70023B0
:10106000F5E770B59DF810409DF818500432A1F1D5
:10107000050CBCF1010F31D918B9A1F10B06012EF5
:1010800034D901282ED000269DF814C04FEACC0C8C
:1010900085B3102084448800ACEB810C64B34FF01E
:1010A000000EF444062904D90CF1080C0EB1881E78
:1010B0008000BCF1000F22DB84440CF1FF3C9CFB60
:1010C000F0FC02FB0C3303F10C00062901D803F1FC
:1010D0000E00800001300239884070BD0B2BCBD848
:1010E0000C23C9E70C2903D00026CDE70126CBE766
:1010F0000126C9E70020CDE74FF0140ED1E74FF0ED
:10110000000CD9E7F0B585B00E4615461946BDF876
:1011100028209DF82C309DF830409DF8347020B187
:10112000012811D00125002408E0019700942846E9
:10113000FFF784FF4FF47A7303FB00F46019013862
:10114000B0FBF5F005B0F0BD029701940093134693
:101150000A4629463046FFF784FF4FF47A7303FBB3
:1011600000F4034B985DFFF73BFF0546E6E700BF41
:101170005C85000808B5034B1B6813B15B6803B1BD
:10118000984708BD1449002008B5FFF7F3FF08BDD4
:1011900008B5034B1B6813B1DB6803B1984708BD62
:1011A0001449002008B5FFF7F3FF08BD4FF0FF30EA
:1011B00070474FF0FF3070470120704701207047A3
:1011C00008B500F0E5FD08BD10B501F07DFB044653
:1011D0000E2140F61F1000F0DBFD0121204601F03A
:1011E0005FFB00F0ADFF10BD08B50121074B93F880
:1011F000560001F055FB2D214FF4D760FFF7E0FFBB
:1012000000F0A5FF024800F0DBFE08BDB848002052
:10121000FFFF0F0070B504460D4601EB4003094E79
:10122000B36500231A464FF6FF71084601F05BF8DC
:10123000002196F8560001F033FB2946204600F0C5
:101240004FFF70BDB848002038B5044601F0B9FB27
:10125000012815D000231A4640F26221084601F009
:1012600042F884B90F4C0021A16594F8560001F0B2
:1012700017FB637883B16FF07F4000F013FF38BD38
:1012800001F0A7FBEDE7084D2146284601F03AFEA4
:10129000284601F0F1FDE5E7024B9868800100F077
:1012A00001FFECE7B84800208848002008B500207E
:1012B00000F06CFE08BD08B500F07EFD08BD08B565
:1012C00000F05AFD052805D0072805D0042805D1CF
:1012D000022002E0012000E0032008BD0020FCE71E
:1012E00030B583B000238DF807300093A04BB3F8DE
:1012F0005430202B27D81AB2002A45D0013B1F2B8F
:1013000042D8DFE813F0430059004100DA00410001
:1013100041004100060141004100410041004100FF
:1013200041004100410041004100410041004100B5
:1013300041004100410041004100410041004100A5
:10134000410041000E01B3F5807F00F087800FD887
:10135000402B00F0FB80802B16D1002000F016FE01
:10136000844B1B6883B19B6973B1002098470BE0E5
:10137000B3F5007F08D100F0FFFC04287BD000F01B
:10138000FBFC052800F0888003B030BD7A4801F0EE
:1013900019FD002000F0FAFD01F015FB012808D02E
:1013A000744B1B68002BEFD01B68002BECD09847C8
:1013B000EAE701F011FBF3E7704801F003FD6C4B25
:1013C0005B78F3B1FF220DF107016D4801F012FACD
:1013D0006C4801F029FA674B1B68002BD4D09C683D
:1013E000002CD1D0624B93F82430012B1DD1604AE0
:1013F00092F9313092F930209DF807106048A047EB
:10140000C2E7002000F0C2FD002140F6021000F00B
:10141000BFFC40F6441000F0CFFC40F00201C9B21E
:1014200040F6441000F0B4FCCCE7514C6946E06B48
:1014300001F07CFA4F4B1B689D68009B03F5FA7323
:10144000514A82FB0312DB17C3EBA2135BB294F980
:1014500029209DF807104A48A84795E7002000F08A
:1014600095FD444B1B68002B8ED09B69002B8BD0C5
:101470000120984788E7404801F0A4FC002000F0D4
:1014800085FD3C4B1B68002B3FF47EAF5B68002B57
:101490003FF47AAF984777E7384801F093FC002093
:1014A00000F074FD334B1B68002B3FF46DAFDB681D
:1014B000002B3FF469AF984766E72D4B996D0029E3
:1014C0003FF462AFC1F3074140F60310FFF778FE27
:1014D000274C94F8591040F60410FFF771FE94F869
:1014E000581040F60510FFF76BFE40F60210FFF7AC
:1014F000E2FE40F00101C9B240F60210FFF760FEC3
:101500000022A265134640F26221084600F0EBFE7D
:101510003AE701F056FA01287FF436AF01F05DFAA0
:1015200032E7164801F04EFC114B5B7853B1114B7A
:101530001B68002B3FF428AFDB68002B3FF424AF7F
:10154000984721E7002000F021FDF0E7084B5B7889
:1015500053B1084B1B68002B3FF416AF1B69002BDF
:101560003FF412AF98470FE7002000F00FFDF0E7BF
:10157000B848002014490020A048002088480020D6
:1015800018490020DC480020D34D621008B5034BF9
:10159000A3F85400FFF7A4FE08BD00BFB848002020
:1015A00008B501F0A8F9033008BD000008B501280E
:1015B00004D00A4B5B7D012B08D008BD084B197085
:1015C0000648C1770E3001F057F8F6E7044B197062
:1015D000024881750E3001F04FF8EEE7B848002060
:1015E0000400002008B500F069FC08BD08B500F053
:1015F00023FC08BD08B501F0CDF808BD38B50D468F
:101600004FF47A7303FB02F400F0E0FE284601F089
:101610005BF905460E2140F61F1000F0B9FB0121D1
:10162000284601F03DF900F08BFD044D2146284687
:1016300001F068FC284601F01FFC38BDA0480020DE
:1016400008B500F0C3FE08BD08B50021074B93F8AC
:10165000560001F025F900231A464FF4C0710846E0
:1016600000F041FE00F060FD08BD00BFB84800205A
:1016700038B5044601F0A5F9012815D000231A4613
:1016800040F26221084600F02EFE84B90F4C002182
:10169000A16594F8560001F003F9637883B16FF007
:1016A0007F4000F0AFFC38BD01F093F9EDE7084D45
:1016B0002146284601F026FC284601F0DDFBE5E73F
:1016C000024B9868800100F09DFCECE7B8480020D0
:1016D0008848002008B54FF0040000F037FC0220D5
:1016E00005F018FC08BD000070B582B005460C4638
:1016F00000231A4640F20121084600F0F4FD3A4E5C
:10170000012196F8560001F0CBF83378012B03D174
:1017100096F85130062B12D040F6890000F04CFBB1
:1017200040F00401C9B240F6890000F031FB2E4BB5
:101730001B78032B27D8DFE803F0180D184940F673
:10174000890000F039FB00F0FB0140F6890000F051
:101750001FFBECE72448C4770E3000F08DFF002219
:101760002146284600F046FC0DE001F02AF9012848
:1017700015D01D4884750E3000F07EFF00222146F2
:10178000284600F037FC194C174B5968204601F0E9
:10179000B9FB204601F070FB002002B070BD0DF1D6
:1017A00007022146284601F011F968B90E489DF854
:1017B000073083750E3000F05FFF00229DF80710A0
:1017C000284600F017FCDEE70320E6E70648022380
:1017D000837384760E3000F04FFF002221462846A6
:1017E00000F008FCCFE700BFB8480020A048002068
:1017F00008B500231A461946184600F074FD00F09B
:101800001BFC08BD10B50446144B187001F0E6F837
:10181000012C10D0032C1AD034B1032000F002FEAA
:101820000E4B00225A7310BD002000F0FBFD0B4B45
:1018300000225A73F7E7012000F0F4FD074B5A7BB2
:10184000187B8242EFD0587300F00AF8EBE70220D1
:1018500000F0E8FD014B00225A73E4E7B84800208D
:1018600010B504460E4B187358730120FFF7CAFFDA
:1018700054B134214FF4E86000F08AFA442140F278
:10188000417000F085FA10BD14214FF4E86000F0BB
:101890007FFA242140F2417000F07AFAF3E700BFAA
:1018A000B84800202DE9F04F83B004460E46174695
:1018B0001D46BDF838809DF83C909DF840A001F091
:1018C0007FF8002C43D0012C40F08280564A01233F
:1018D00082F838300C9BDBB282F850305349495DB6
:1018E00082F851109DF8341082F8521025B90C9AE4
:1018F0000B3A012A40F28880012D00F081804A4A8B
:10190000002182F85310484A01219173053BDBB254
:101910008B427ED9444BA3F81C80434C84F81E9024
:10192000434B1B78E37784F820A09DF84C3084F873
:101930002130FFF7BBFC0120FFF764FF04F1380002
:1019400000F018FE04F10E0000F096FE40E0364C68
:101950004FF0000B84F838B00C9BE3630B2384F842
:101960004430284600F0CAFF84F84500276484F814
:101970000EB04FEAC808A4F810800423A3741823FB
:10198000E37484F814B089F0010984F81590BAF171
:10199000000F31D0F222E275234C01232376FFF7AA
:1019A00085FC0020FFF72EFF04F1380000F0E2FD77
:1019B00004F10E0000F060FE1E4A92E80300CDE93B
:1019C0000001684600F048FA40F2FF1000F01BFAF0
:1019D000304600F079FF144C84F856000E2140F692
:1019E0001F1000F0D5F994F8560000F0EEFF149B9C
:1019F000636003B0BDE8F08F0B4B0122DA75CBE7D3
:101A00000C9A0C2A7FF47BAF074A012182F853100D
:101A100079E7B8F10B0F03D813460C229A837CE7C1
:101A2000014BA3F81C8078E7B84800205C850008CB
:101A300004000020888400082DE9F04F85B004469A
:101A40000D4616460193BDF83C90BDF840A09DF8A8
:101A500044709DF84CB09DF85C80764B83F8018013
:101A600000F0AEFFB8F1000F01D04FF0000A002FD8
:101A70006BD09DF84820704B1A70002C69D0012C57
:101A800040F0B380002000F069FB6A4A012382F82D
:101A90003830F3B282F850306849495D82F851100D
:101AA000019982F8521025B9A6F10B02012A40F2E1
:101AB000A680012D00F0A0805E4A002182F853101C
:101AC0005C4A01219173053BDBB28B4240F29C8062
:101AD000584BA3F81C90574CA777574B1B78E377CC
:101AE00084F820B09DF8583084F82130FFF7DEFBF1
:101AF0000120FFF787FE04F1380000F03BFD04F100
:101B00000E0000F0B9FD5FFA8AF000F034FB40F6F9
:101B1000A30000F051F900F0010140F6A30000F02D
:101B200037F994F82130012B79D040F2367000F06B
:101B300043F940F00401C9B240F2367000F028F9D0
:101B40003C4B4FF6FF729A604FE03B4BFF221A70FE
:101B500093E7002000F002FB364C4FF0000884F8B9
:101B60003880E6630B2384F84430284600F0C6FE34
:101B700084F8450084F80E804FEAC909A4F8109053
:101B80000423A3741823E37484F8148087F00107F6
:101B90006775294B1B78A375BBF1000F28D0F22283
:101BA000E275244C01232376FFF780FB0020FFF72A
:101BB00029FE04F1380000F0DDFC04F10E0000F015
:101BC0005BFD1F4A02AB92E8030083E8030018465E
:101BD00000F042F940F2FF1000F015F94FF4FA530B
:101BE00003FB0AF3B3FBF6F3A36005B0BDE8F08F87
:101BF000104B0122DA75D4E70C2E7FF45DAF0D4A4D
:101C0000012182F853105BE7B9F10B0F03D813469B
:101C10000C229A835FE7074BA3F81C905BE740F226
:101C2000367000F0C9F800F0FB0140F2367000F0A9
:101C3000AFF885E7B8480020040000205C85000864
:101C400088840008F0B58BB004460F4616461D4642
:101C5000FFF72CFB0020FFF7D5FD2046FFF7F0FC37
:101C6000012309930024089407940694059404948E
:101C70000394029403230193009723464FF41672B2
:101C800039462046FFF7D8FE2046FFF7F1FCFFF764
:101C900087FC05F03FF901F055F80446204601F0B5
:101CA0005BF8A84206D20020FFF7A4FCB042F5DDA5
:101CB000002400E00124FFF7F9FA20460BB0F0BD44
:101CC00070B582B01D4B18601D4D00246C706C60A7
:101CD000AC60AC651B4800F03FFB6C732C7300F0EC
:101CE0006BFA2146204600F037FD042221460120F0
:101CF00000F0B2FB234622464FF6FF71084600F083
:101D0000F2FAFFF7E7FC104E0094104B22464FF01A
:101D1000FF31304600F0F8FF0D4D00940D4B224688
:101D20004FF0FF31284600F0EFFF304601F04AF84F
:101D3000284601F047F802B070BD00BF14490020EA
:101D4000B84800208D150008A0480020891100081F
:101D500088480020A5110008002070470020704727
:101D600000207047012070470120704708B90F20FC
:101D70007047162070470000014B1878704700BF6D
:101D8000264A0020014B1878704700BF254A0020E2
:101D900010B582B08DF80710EFF3108472B60123EE
:101DA0000DF107020146034803F0F0FA84F31088AE
:101DB00002B010BDFC47002010B582B00146EFF321
:101DC000108472B601230DF10702044803F02CFBC6
:101DD00084F310889DF8070002B010BDFC47002076
:101DE00010B50446FFF7C0FF012800D010BD40F633
:101DF0002310FFF7E1FF00F0F901214340F6231023
:101E0000FFF7C6FFF2E710B50446FFF7BBFF00B1CE
:101E100010BD4FF4D760FFF7CFFF00F0FE00C4F312
:101E2000002101434FF4D760FFF7B2FFE1B240F267
:101E3000B960FFF7ADFFEBE710B51346EFF3108481
:101E400072B60A460146034803F0A0FA84F31088EC
:101E500010BD00BFFC47002008B5014608224FF422
:101E6000D860FFF7E9FF002008BD00B583B0030A82
:101E70008DF804308DF80500FFF784FF10B103B032
:101E80005DF804FB022201A940F2BC60FFF7D4FF19
:101E9000F5E700B583B0030A8DF804308DF805002E
:101EA000FFF770FF10B103B05DF804FB022201A937
:101EB00040F2BE60FFF7C0FFF5E7000010B5134623
:101EC000EFF3108472B60A460146034803F0ACFAF9
:101ED00084F3108810BD00BFFC47002010B51346E6
:101EE000EFF3108472B60A460146034803F08CFBF8
:101EF00084F3108810BD00BFFC47002008B50A46D7
:101F000001460020FFF7EAFF08BD000010B51346A8
:101F1000EFF3108472B60A460146034803F0BCFB97
:101F200084F3108810BD00BFFC47002010B5134695
:101F3000EFF3108472B60A460146034803F0C6FA6E
:101F400084F3108810BD00BFFC47002010B582B09C
:101F500004460020FFF702FF0220FFF741FF04F0D4
:101F6000040304F00202134304F0010423438DF838
:101F7000073001220DF107018420FFF7D7FF024B44
:101F800000221A7002B010BD264A002000B583B0AE
:101F90008DF8070001220DF107018020FFF7C6FF31
:101FA0009DF807302BB9054B01221A7003B05DF87C
:101FB00004FB024B02221A70F8E700BF264A0020F9
:101FC00000B583B00A4B04221A70C0F307438DF8A2
:101FD0000430C0F307238DF805308DF80600032286
:101FE00001A98320FFF7A2FF03B05DF804FB00BF47
:101FF000264A002010B51446FFF780FF2046FFF761
:10200000DFFF10BD00B583B00A4B05221A70C0F384
:1020100007438DF80430C0F307238DF805308DF8A1
:102020000600032201A98220FFF780FF03B05DF8BC
:1020300004FB00BF264A002070B582B0002601963E
:1020400040F6E200FFF7B8FE054600F0FE0140F65C
:10205000E200FFF79DFE40F6E500FFF7ADFE044607
:1020600000F07F0140F6E500FFF792FE6FF07F4041
:10207000FFF7C8FF04220DEB020140F61900FFF73D
:102080001DFF3046FFF782FF294640F6E200FFF7CA
:102090007FFE214640F6E500FFF77AFE019802B088
:1020A00070BD000010B582B004460C4B05221A70BA
:1020B000972140F6AC00FFF76BFEC4F307438DF8A1
:1020C0000430C4F307238DF805308DF80640032251
:1020D00001A98220FFF72AFF02B010BD264A002086
:1020E00000B583B0C0F307438DF80030C0F3072379
:1020F0008DF801308DF80200C1F307438DF80330ED
:10210000C1F307238DF804308DF8051006226946C7
:102110009420FFF70BFF034B06221A7003B05DF803
:1021200004FB00BF264A002008B500221146C52046
:10213000FFF7FCFE014B07221A7008BD264A00205B
:1021400008B500221146D120FFF7F0FE08BD08B502
:1021500000221146D220FFF7E9FE08BD00B583B08A
:102160008DF8070001220DF107019F20FFF7DEFE29
:1021700003B05DF804FB00B583B08DF807000122C1
:102180000DF10701A020FFF7D1FE9DF807303F2B8E
:102190000FD95B08002202E09B080132D2B21F2B4C
:1021A000FAD8D900C9B21144C9B240F20670FFF79B
:1021B000EFFD03B05DF804FB00B583B0FFF7D4FD7D
:1021C00001280BD000238DF8073001220DF1070103
:1021D0009620FFF7ABFE03B05DF804FB01238DF8FA
:1021E0000730F2E700B583B000F0400300F02002B2
:1021F000134300F01002134300F00802134300F0F1
:102200000402134300F00202134300F001000343F1
:102210008DF8073001220DF107018920FFF786FEB6
:1022200003B05DF804FB000000B583B01F4B98427B
:102230000DD9E1238DF80430E9238DF80530022211
:1022400001A99820FFF772FE03B05DF804FB184B5C
:10225000984206D9D7238DF80430DB238DF805305A
:10226000EDE7144B984206D9C1238DF80430C523FD
:102270008DF80530E3E7104B984206D975238DF8A9
:10228000043081238DF80530D9E70C4B984206D9EC
:102290006B238DF804306F238DF80530CFE72923A9
:1022A0008DF804302B238DF80530C8E700E9A435FC
:1022B00080F8A9328044E52D000B6B1B40FC5419BB
:1022C00000B583B08DF804008DF805108DF8062058
:1022D0008DF8073004220DEB02019520FFF726FE52
:1022E00003B05DF804FB00B583B04FEA102C8DF805
:1022F00000C08DF80100080A8DF802008DF8031067
:10230000110A8DF804108DF805201A0A8DF80620A0
:102310008DF80730082269461046FFF707FE03B024
:102320005DF804FB00B583B000F007008DF80400F1
:10233000C1F307438DF80530C1F307238DF806304C
:102340008DF8071004220DEB02019720FFF7EEFD38
:1023500003B05DF804FB000008B508B1184A10602E
:10236000FEF78EFA0220FFF73BFD0020154B187098
:10237000FFF70CFEFFF7F6FC012814D0202140F6F1
:102380001110FFF705FD202140F61210FFF700FDA8
:102390000E2140F61F10FFF7FBFCFFF7DDFC0A4B98
:1023A00001221A7008BD4021FFF7BCFF002140F652
:1023B0001110FFF7EDFC4FF07F00FFF713FFE7E789
:1023C000184A00201C4A0020264A002010B582B07E
:1023D0000446124B1B78D3B1114A00236006E10971
:1023E000FDF7B6FE030E8DF80430C0F307438DF8F9
:1023F0000530C0F307238DF806308DF8070004225E
:102400000DEB02018620FFF791FD02B010BDFFF732
:102410000BFF024B01221A70DEE700BF1C4A0020AE
:102420000048E80100B583B08DF80700C3B2094A3F
:10243000137043B101220DF107018A20FFF776FDE9
:1024400003B05DF804FB002140F2AC60FFF7A0FC94
:10245000F0E700BF254A002070B582B00C46164652
:10246000012835D040F6D800FFF7A6FC40F01E0149
:10247000C9B240F6D800FFF78BFC0120FFF776FCCD
:102480000546844200DD44B2142D54D0112D5CD099
:102490000E2D64D00123002207210420FFF710FF36
:1024A000641B163465B215F1090F01DA6FF00805E7
:1024B000382140F6E700FFF76BFC8DF804508DF8EB
:1024C0000560022201A98E20FFF730FD02B070BD29
:1024D0000020FFF74BFC0546844200DD44B20E2D80
:1024E00015D00A2D1DD001231A4600210720FFF721
:1024F000E7FE651B0E356DB215F1110F01DA6FF0B5
:102500001005182140F6E700FFF742FCD5E701234C
:102510001A4600210420FFF7D3FE651B0E356DB26D
:10252000EAE701231A4600211846FFF7C9FE651B9A
:102530000D356DB2E0E70123002205210320FFF7EE
:10254000BFFE651B16356DB2ADE7012300220321E6
:102550000220FFF7B5FE651B16356DB2A3E7012318
:10256000002202210846FFF7ABFE651B0E356DB257
:1025700099E7000010B582B0044600230093019350
:1025800000783A4B1B78984206D12378032B2CD83D
:10259000DFE803F005422D54FFF744FFF5E76268DA
:1025A000334BB3FBF2F31A0C8DF800201A0A8DF8A6
:1025B00001208DF80230237B8DF80330637B8DF88A
:1025C0000430A1682B4A00234806C909FDF7C0FD65
:1025D000030C8DF80530030A8DF806308DF80700DE
:1025E000082269468B20FFF7A1FC02B010BD2269CA
:1025F0001F4BB3FBF2F31A0C8DF800201A0A8DF86A
:1026000001208DF80230237D8DF8033004226946C5
:102610008B20FFF78BFCE8E7237E8DF80030637E8C
:102620008DF80130A37E8DF80230E37E8DF8033003
:10263000042269468B20FFF779FCD6E762680C4BD1
:10264000B3FBF2F31A0C8DF800201A0A8DF8012062
:102650008DF80230237B8DF80330637B8DF80430D6
:10266000052269468B20FFF761FCBEE7254A002062
:102670000000093D0048E80110B584B0044600237D
:10268000019302938DF80C300078314B1B789842FF
:1026900006D12378032B2AD8DFE803F005443F0551
:1026A000FFF7C0FEF5E7637AF12B22D0F22B2AD098
:1026B0006288110A8DF804108DF8052022798DF8B2
:1026C000062062798DF80720A2798DF80820E2793A
:1026D0008DF80920227A8DF80A208DF80B30A37A24
:1026E0008DF80C30092201A98C20FFF71FFC04B0E3
:1026F00010BD4FF6FF70FFF7B8FB48F20500FFF77B
:10270000C8FB0223D4E741F60F50FFF7AEFB41F2BE
:102710002100FFF7BEFB0623CAE7237B8DF80430B8
:102720000122E0E7E3891A0A8DF804208DF80530CC
:10273000237C084A13708DF80630637C8DF80730CF
:10274000A37C8DF80830E37C8DF809300622CAE7B7
:10275000254A0020244A002000B583B08DF80400EB
:102760008DF80510022201A98F20FFF7DFFB03B0CF
:102770005DF804FB10B51346EFF3108472B60A46F9
:102780000146034802F0F6FE84F3108810BD00BF36
:10279000FC47002000B583B0012201A91520FFF7F6
:1027A000E9FF9DF804004042401003B05DF804FBCF
:1027B00030B583B005460C46022201A91320FFF76D
:1027C000D9FFFFF7DFFA012807D09DF804302B70FE
:1027D0009DF80530237003B030BD054B1B78012BED
:1027E000F3D140F20270FFF7E7FA2870F0E700BF7C
:1027F000244A002070B582B006460C4615460023D8
:102800008DF807300DF107012046FFF7D1FF227840
:10281000AA4202D9012002B070BD31469DF80700DE
:10282000FFF774FB0020F6E710B582B004460322E0
:1028300001A91420FFF79EFFFFF7A4FA207048B10A
:10284000012818D014220021204600F053FA0F234B
:1028500023700EE09DF8043023719DF805305B4233
:102860005B10A3719DF806305B425B10637100231F
:10287000A36002B010BD9DF804305B425B1023736F
:102880009DF9053002339B1063739DF806305B425F
:102890005B10A373014B1B682361EAE7204A002009
:1028A00010B5012903D00120FFF758FA10BD0446E6
:1028B0000846012C03D0022CF6D10320F4E70420B3
:1028C000FFF78EFA0220F6E738B50446FFF748FA1C
:1028D00048B102280DD10225022221462846FFF7E1
:1028E000BBFD284638BD0F2C01DC0125F4E702258D
:1028F000F2E70125F0E7012070470000014680B1B2
:102900000023152B0CD8084A52F833208A4202D8EB
:102910000133DBB2F5E7044A02EBC30318797047D1
:10292000FEE71F20704700BFEC85000870B582B03D
:1029300005460C461D4B019340F60700FFF73CFA95
:10294000C0F3C10308336B4413F8042C00F00703F1
:1029500001339A40164BB3FBF2F3B3FBF5F00728B3
:1029600004D8400003281ED9022500E0012503FBFE
:1029700005F54FF4D660FFF71FFA060206F47066FD
:1029800040F2B160FFF718FA304310F4006F03D043
:102990006FEA00506FEA10506D0905FB00F0C0119E
:1029A000206002B070BD0425E1E700BF04080A0CF6
:1029B0000048E8014FF0FF3070474FF0FF3070479C
:1029C0007047002070470020704770474FF0FF307D
:1029D00070474FF0FF3070477047704770470000F6
:1029E00010B5EFF3108E72B61E4BB3F812C01A8AF0
:1029F000944511D0944521D9CCF500739BB2834204
:102A00001FD882421DD9174B01249C70A3F800C027
:102A100000245C82134614E0CCF500739BB298420C
:102A20000FD382420DD90F4B01249C70A3F800C034
:102A30004FF0000CA3F812C0134602E0A2EB0C0208
:102A400093B283420AD9074A538A0B800344C3F3E3
:102A50000803538200208EF3108810BD4FF0FF3022
:102A6000F9E700BF284D0020EFF3108172B6034A4A
:102A7000D38A0133D38281F310887047284D002018
:102A8000EFF3108172B6034AD38A013BD38281F3FC
:102A900010887047284D0020024BD88A003818BF94
:102AA00001207047284D002008B518220021074852
:102AB00000F020F94FF400720021054800F01AF9E7
:102AC000044B1B680448984708BD00BF284D0020F0
:102AD000284B002094870008492C0008704700000C
:102AE00070B5EFF3108472B6FFF7D6FF18B184F318
:102AF0001088002070BDFFF7B7FF1D4B1A8A5B8A54
:102B00009A422ED01A498978012917D0184A92780A
:102B100032B9174A128A93421ED99B1A144A9382D9
:102B2000134E358A134B1D4484F31088FFF7D6FFEC
:102B3000114BDB68B18A28469847DBE70C480188CF
:102B40008A1A92B282820221817000210180002AB9
:102B5000DCD181700182D9E7C2F50072044B9A8200
:102B6000DEE7FFF78DFF84F310880020C2E700BF87
:102B7000284D0020284B00209487000808B430B569
:102B800086B0099C0023ADF802302B4B1B7A8342A0
:102B90004CD3294BDB6899434BD1274B5B6823B15E
:102BA0001AB10DF1020101A898470AAB059322461C
:102BB0004FF48071214800F05DFA85B2FFF754FFB1
:102BC000BDF80230E818694680B2FFF709FFB0F19E
:102BD000FF3F26D000230DE0BDF8002003F11801CF
:102BE000694411F8140C164988540132ADF80020DC
:102BF00001339BB2BDF802209A42EDD8BDF8000027
:102C0000059B22464FF480710D4C204400F032FAAF
:102C1000FFF736FFFFF764FF06B0BDE8304001B0B4
:102C20007047FFF72DFF6FF00200F5E76FF004002B
:102C3000F2E76FF00500EFE7284D0020284A00205A
:102C4000284B00207047000010B5EFF3108172B6DA
:102C5000254B9B78022B16D0234A138A908A034473
:102C6000C3F308031382204B1A8A5B8A9A4203D06B
:102C70001D48C08A01280BD081F31088FFF7E2FFBE
:102C8000FFF7FEFE10BD184B00229A701A82EAE789
:102C900015488078012814D0134A927832B9124A24
:102CA000128A93421BD99B1A0F4A93820E4B188AA1
:102CB0000E4A104481F310880D4AD268998A9047D1
:102CC000E0E7094C2088821A92B2A2820220A0700A
:102CD00000202080002ADFD1A0702082DCE7C2F52E
:102CE0000072014B9A82E1E7284D0020284B00201A
:102CF0009487000802E000F8011B1A46531E9BB29D
:102D0000002AF8D170470000A8B1F8B517461E4652
:102D1000044693B100250560094B5B6A0846984755
:102D2000606025726572A572E660069B2361E7729A
:102D300065612846F8BD012070470120FAE700BF11
:102D40006887000810B5034CE3699847A36A984761
:102D500010BD00BF6887000870B50646054DEB69D9
:102D6000984704466B6A30469847AB6A201A9847E2
:102D700070BD00BF68870008054B1B6800E05B69F9
:102D80001BB18342FBD1012070470020704700BF78
:102D9000404D0020F8B50446094E336A9847054671
:102DA000012323722768B669B0472844874202D2BC
:102DB000B04728442060024B9B6820689847F8BDC4
:102DC0006887000868B310B50246EFF3108472B646
:102DD000154B196801238372E1B1002343728842C5
:102DE00006D00B46B3B1934211D019465B69F9E79F
:102DF0000B72486920B10C4B1860FFF7CBFF09E05C
:102E00000A4BDB689847084B00221A6002E05B69B6
:102E100023B14B6184F31088002010BD00234B6167
:102E2000F8E70120704700BF404D00206887000888
:102E3000094B1A68536901E01A465B69516939B157
:102E40001968D0F800C08C45F6D8506143617047CE
:102E50005061002343617047404D002008B5054B89
:102E60001B680BB100221A724361024B1860FFF716
:102E700091FF08BD404D0020F8B5002836D004462B
:102E8000FFF77AFF002834D1657A002D33D1EFF3B4
:102E9000108672B66768194B1B6A9847874200D341
:102EA000384620600023237201226272A372144B01
:102EB0001B6883B1114B9B699847236818442060B5
:102EC0000F4B1B681B6898420CD22046FFF7C6FFC9
:102ED00086F310880BE0094B1B6998472046FFF7E3
:102EE000BDFFF5E72046FFF7A3FFF1E701252846E0
:102EF000F8BD0125FBE70125F9E700BF6887000859
:102F0000404D002098B110B504460A4B5B6A084654
:102F1000984760602046FFF72FFF08B9002010BDDA
:102F20002046FFF74FFF2046FFF7A6FFF7E70120F7
:102F3000704700BF688700080146002008E000EBEA
:102F40008000531C0B60137803EB4003A3F13000A7
:102F50000A681378303BDBB2092BF0D970470000C8
:102F60002DE9F04593B01B9D1C9E16F0400F10D12B
:102F7000DFF8F8A09F1E222F75D816F001040BD0A1
:102F80004FF0300E16F0020F0FD0002A07DB00279B
:102F90000CE0DFF8DCA0EDE74FF0200EF2E7524244
:102FA0001A9E013E1A962D2700E000275ABB3023B7
:102FB0008DF804304FF0010CAC4500DD65461A9BDE
:102FC0005B1B1CB31FB100F8017B013907D0002B3C
:102FD00003F1FF3324DD00F801EB0139F7D113B021
:102FE000BDE8F085B2FBF3F603FB16221AF8028067
:102FF0000CF148026A4402F8448C32460CF1010C90
:10300000002AEFD1D8E74FF0000CF9E7002B03F1CD
:10301000FF33D7DD202200F8012B0139F6D1DEE79E
:10302000654505F1FF3505DD302200F8012B01393A
:10303000F6D1D4E76246002A0CF1FF3C09DD0CF121
:1030400048026A4412F8442C00F8012B0139F1D1EE
:10305000C5E7002B03F1FF33C1DD202200F8012B6F
:103060000139F6D1BBE70020B9E700BFC8840008EA
:10307000F08400082DE9F04387B0059204930E1EFA
:1030800040F3B6800546044604E004F8012B059B96
:103090000133059305990A7822B9631B701E834298
:1030A000C0F2A080631B771EBB4280F29B80252A62
:1030B000EBD14B1C05934B78302B20D04FF0000800
:1030C000303BDBB2092B1DD94FF0FF39059B1A7835
:1030D000A2F15803202B52D8DFE803F04951515197
:1030E000515151515151511E4D515151514D51510B
:1030F000515151515151512A5119515167004FF0BD
:103100000108DDE705A8FFF717FF8146DEE70A2380
:103110004EE0202304F8013B09F1FF39B9F1000F1B
:10312000F7DC049B1A1D04921B7804F8013BAEE700
:10313000049B1A1D04921F681FB13846FDF700F862
:1031400005E02C4FF9E7202204F8012B994609F1FC
:10315000FF338145F7DC002206E03B4613F8011BF4
:1031600004F8011B01321F468242F6DB8FE748F06C
:10317000400810231CE048F002080A231BE0252A1F
:1031800002D0252304F8013B631B9F420FDD059B02
:103190001A783AB104F8012B631B9F423FF777AFCF
:1031A0000A2305E0013B0593F6E7102300E00A231C
:1031B00018F0020F11D0049A111D04911268611BBE
:1031C000CDF808804FF0FF300190CDF80090791ACB
:1031D0002046FFF7C5FE044659E7049A111D0491E5
:1031E0001268ECE700232370601B07B0BDE8F08392
:1031F0000020FAE71885000810B5032000F072F8E7
:1032000000F042FE064B18600F2002F0F9FB10B1EF
:103210000124204610BD044600F04AFCF9E700BF37
:103220000C000020034B1B78034A11680B44136009
:10323000704700BF05000020444D0020002807DB38
:1032400000F01F02400901239340024A42F8203057
:10325000704700BF00E100E000280CDB00F01F0217
:103260004009012393402030034A42F82030BFF345
:103270004F8FBFF36F8F704700E100E0002808DB3D
:103280000901C9B200F1604000F5614080F8001307
:10329000704700F00F000901C9B2014B1954704783
:1032A00014ED00E000B500F00700C0F1070CBCF120
:1032B000040F28BF4FF0040C031D062B0FD9C31EAB
:1032C0004FF0FF3E0EFA0CF021EA000199400EFA91
:1032D00003FE22EA0E0241EA02005DF804FB00232D
:1032E000EEE70000074AD36823F4E0631B041B0CDD
:1032F000000200F4E060034343F0BF6343F4003393
:10330000D360704700ED00E010B50446054BD86867
:10331000C0F30220FFF7C6FF01462046FFF7AEFFCD
:1033200010BD00BF00ED00E008B5FFF787FF08BD46
:1033300008B5FFF791FF08BD10B4C46CD0F850C0B9
:10334000C4F804C0446D24B1846DD0F85CC0C4F8E6
:1033500004C0446C04F01C0C012404FA0CF4D0F8F2
:1033600040C0CCF80440046863608368102B05D02B
:10337000036899600368DA6010BC704703689A605C
:103380000368D960F8E700000368144A934216D82E
:10339000426C22F0030202F1804202F502328264A2
:1033A000DBB2083B0E4AA2FB03231B090D4AC26491
:1033B00003F01F03012202FA03F303657047426C16
:1033C00022F00301084A0A448264DBB2083B044A43
:1033D000A2FB03231B090733E8E700BF07040240F1
:1033E000CDCCCCCC800802401C080240436803F0DE
:1033F0007F03074A1A4492004265064A8265013BF0
:1034000003F00303012202FA03F3C365704700BF10
:103410003F8200104009024000285ED010B50446EB
:1034200003682F4A934240D82E4A1A442E49A1FBE2
:1034300002121209920042642C4A0264022284F8A9
:1034400025201A686FF30E121A6021680A68A368B3
:10345000E06803432069034360690343A0690343B1
:10346000E0690343206A034313430B602046FFF7E0
:103470008BFFA368B3F5804F22D06368A26C03F082
:103480007F031360E36C226D5A606368013B032B7A
:1034900019D900236365A365E3650020E063012378
:1034A00084F8253084F8240010BD114A1A440E49CE
:1034B000A1FB02121209920042640E4A0264BDE7A7
:1034C00000236360D9E72046FFF790FF636D002279
:1034D0001A60A36DE26D5A60DFE70120704700BFFC
:1034E00007040240F8FFFDBFCDCCCCCC0000024069
:1034F000F8FBFDBF0004024000284BD038B504465D
:103500000268136823F0010313600268224B9A4299
:103510002CD8224B13442249A1FB03131B099B0007
:103520004364204B036400251560636C03F01C02A8
:10353000216C012393404B602046FFF725FFA36CCD
:103540001D60E36C226D5A606368013B032B18D940
:1035500000206065A065E065E06220636063A063B1
:10356000E06384F8250084F8240038BD0E4B134432
:103570000B49A1FB03131B099B0043640B4B036422
:10358000D1E72046FFF732FF636D1D60A36DE26D4A
:103590005A60DDE70120704707040240F8FFFDBFD5
:1035A000CDCCCCCC00000240F8FBFDBF00040240B3
:1035B00038B5044690F82400012842D0012084F850
:1035C000240094F82500012806D08023E36300231B
:1035D00084F82430012038BD022084F82500002022
:1035E000E0632568286820F0010028602046FFF786
:1035F000A3FE236BD3B12268136843F00E0313605C
:10360000A36C1A6812F4803F03D01A6842F48072E7
:103610001A60636D1BB11A6842F480721A602268E6
:10362000136843F0010313600020D4E72268136895
:1036300023F0040313602268136843F00A03136045
:10364000DEE70220C7E70346002833D090F82520A4
:10365000022A06D00422C263002280F8242001201E
:10366000704701680A6822F001020A6001680A686E
:1036700022F00E020A60816C0A6822F480720A60ED
:10368000426C02F01C01006C01228A404260DA6C3C
:10369000196D51605A6D32B1116821F48071116059
:1036A0009A6DD96D5160012283F82520002083F89E
:1036B000240070470120704708B590F82530022B90
:1036C00003D00423C363012008BD0268136823F0FC
:1036D000010313600268136823F00E031360826C09
:1036E000136823F480731360436C03F01C02016CB5
:1036F000012393404B60C36C026D5A60436D33B13C
:103700001A6822F480721A60836DC26D5A600123B8
:1037100080F82530002380F82430836B13B198475C
:103720000020D1E70020CFE738B5036C19680468A2
:103730002568436C03F01C0304229A400A4215D00A
:1037400015F0040F12D0236813F0200F03D1236863
:1037500023F004032360436C03F01C02016C042378
:1037600093404B60036B03B1984738BD02229A40E7
:103770000A4228D015F0020F25D0236813F0200F3D
:1037800006D1236823F00A032360012380F8253043
:1037900002681C4B9A420ED9436C03F01C020223B0
:1037A0009340194A5360002380F82430C36A002BE9
:1037B000DBD09847D9E7436C03F01C020223934007
:1037C000124A5360EFE7082202FA03F30B42CCD00F
:1037D00015F0080FC9D0236823F00E032360436C53
:1037E00003F01C03016C012202FA03F34B60C26375
:1037F00080F82520002380F82430436B002BB4D0C0
:103800009847B2E7800002400004024000000240F6
:1038100070B5002369E085685E000324B44025EAA2
:103820000405CC68B4402C438460456825EA0C0547
:103830004C68C4F300149C402C43446066E0DD08EF
:10384000083550F8254003F0070C4FEA8C0C4FF078
:103850000F0E0EFA0CFE24EA0E0E0C6904FA0CF49C
:1038600044EA0E0440F8254067E0022400E000240A
:1038700004FA0EF42C430CF1020C4B4D45F82C408D
:103880004A4C2568D44325EA0206D1F804C01CF44A
:10389000801F01D042EA0506444D2E606D6804EA9F
:1038A0000506D1F804C01CF4001F01D042EA050649
:1038B0003E4D6E60D5F8805004EA0506D1F804C08C
:1038C0001CF4803F01D042EA0506384DC5F88060FF
:1038D000D5F884502C404E6816F4003F01D042EADF
:1038E0000504324AC2F8844001330A6832FA03F40C
:1038F00058D04FF0010C0CFA03FC1CEA0202F3D082
:103900004C6804F00304013C012C84D94C6804F099
:103910000304032C0CD0C4685D004FF0030C0CFAB8
:1039200005FC24EA0C0C8C68AC4044EA0C04C4602E
:103930004C6804F00304022C81D004684FEA430E63
:103940004FF0030C0CFA0EFC24EA0C0C4C6804F04B
:10395000030404FA0EF444EA0C0404604C6814F402
:10396000403FC1D04FEA930C0CF102050E4C54F8C5
:10397000255003F0030E4FEA8E0E072404FA0EF4CE
:1039800025EA0405B0F1904F3FF471AF084CA04216
:1039900006D004F58064A0423FF467AF072467E7D0
:1039A000012465E770BD00BF000001400008005819
:1039B00000040048002331FA03F271D0F0B52EE084
:1039C000022500E0002505FA0CF5A54249D004685F
:1039D0005D004FF0030C0CFA05FC44EA0C04046093
:1039E0004FEAD30E0EF1080E50F82E4003F00706F2
:1039F000B6000F25B54024EA050440F82E4084683F
:103A000024EA0C048460446824EA02024260C2682A
:103A100022EA0C02C260013331FA03F23FD00122E4
:103A20009A4012EA0107F6D09E08B51C1D4C54F8C6
:103A3000254003F0030C4FEA8C0C4FF0070E0EFAF2
:103A40000CFE0EEA0404B0F1904FBBD0164DA84214
:103A500005D005F58065A842B2D00725B3E701255A
:103A6000B1E7124CD4F8805025EA0705C4F880501D
:103A7000D4F8845025EA0705C4F88450256825EA5F
:103A800007052560656825EA07056560054D02366E
:103A900055F8264024EA0E0445F8264097E7F0BD85
:103AA000704700BF000001400004004800080058B3
:103AB00008B500220F216FF00100FFF725FC00225E
:103AC00005210846FFF720FC0520FFF72DFC08BD67
:103AD00010B590B004463822002102A804F011FB72
:103AE0002268124B9A4201D010B010BD4FF48033BF
:103AF00002934FF400730F9302A800F06DFE88B993
:103B00004FF0B043D3F8902042F40042C3F8902025
:103B10009A6D42F480629A659B6D03F48063019311
:103B2000019BE1E7FCF7FCFDEAE700BF002800404D
:103B300082B04FF0B0435A6E42F001025A665B6E9B
:103B400003F001030193019B02B0704730B597B0B9
:103B5000044600211191129113911491159138226C
:103B600003A804F0CEFA2268294B9A4201D017B07C
:103B700030BD012303934FF44033049303A800F0B6
:103B80002BFE00283ED14FF0B0431A6E42F4804223
:103B90001A661A6E02F480420292029ADA6C42F0BD
:103BA0000202DA64DB6C03F002030193019BC02381
:103BB00011930223129300251395032314930723D3
:103BC000159311A91348FFF723FE1348134B036005
:103BD0001223436010238360C56080230361456125
:103BE0008561C5610562FFF717FC70B90A4BE36791
:103BF0009C62002205212420FFF786FB2420FFF78A
:103C000093FBB4E7FCF78CFDBDE7FCF789FDEDE71E
:103C10000038014000040048084700200800024026
:103C200002680B4B9A4200D0704710B504464FF023
:103C3000B042136E23F480431366C0210548FFF79A
:103C4000B9FEE06FFFF758FC2420FFF771FB10BDB1
:103C50000038014000040048024A136843F48073AE
:103C60001360704700040058024B186800F4C060ED
:103C7000704700BF0004005830B589B004468C4638
:103C80002A4B93E803000690ADF81C1003F10802DC
:103C900092E803000490ADF8141001AD103393E8DE
:103CA000070085E80700BCF5007F07D0002314E07B
:103CB00008AA02EB830353F81C5C1EE00023022BCE
:103CC00008D808AA02EB430232F8082CA242EFD22D
:103CD0000133F4E7002510E00133022B0CD808AAC9
:103CE00002EB430232F8102CA242F5D308AA02EBF1
:103CF000830353F81C5C00E000250D4A136823F091
:103D000007032B43136003F003F90446084B1B68B9
:103D100003F00703AB4206D003F0FAF8001B0228B9
:103D2000F4D9032000E0002009B030BD90840008E1
:103D30000040005810B5C0F303100C4B53F820405E
:103D40004FF0B043D3F8083103F00F03084A52F89C
:103D50002330B4FBF3F4FFF787FF0146054BA3FBC9
:103D60000434A00CFFF788FF10BD00BFC486000814
:103D70002487000883DE1B434FF0B0439968DB685B
:103D800003F0030311F00C010AD00C2906D004291A
:103D900047D008293BD00022104626E0012BF6D15F
:103DA0004FF0B0431B6813F008030DD04FF0B04341
:103DB0001B6813F0080324D14FF0B042D2F89420CE
:103DC0002E4A52F823200EE04FF0B042126812F053
:103DD000080F12D14FF0B043D3F89430C3F303234C
:103DE000264A52F82320D1B100204FF0B0439B68FF
:103DF00003F00C030C2B1AD070474FF0B04212683E
:103E0000EEE74FF0B0431B68C3F30313D8E74FF05E
:103E1000B0431A6812F4801206D11948E5E710463B
:103E2000E3E700221748E0E700221648DDE74FF0FD
:103E3000B043DB6803F00303022B09D0032B08D146
:103E40004FF0B0431B6813F4801F15D10C4A00E0FB
:103E50000C4A4FF0B041CB68C3F3062303FB02F2D8
:103E6000CB68C3F302130133B2FBF3F2C868400F0F
:103E70000130B2FBF0F0BFE7024AEAE7C48600086F
:103E80000048E8010024F40008B5FFF775FF4FF083
:103E9000B0439B68C3F30313024A52F82330B0FBCC
:103EA000F3F008BD24870008002800F01183F8B55E
:103EB00004464FF0B0439D6805F00C05DE6806F03F
:103EC0000306036813F0200F2AD0002D65D00C2DB7
:103ED00061D0236A002B00F0BF804FF0B04213681E
:103EE00043F00103136003F013F807464FF0B043AB
:103EF0001B6813F0020F00F0A7804FF0B0431A6860
:103F000042F008021A601A6822F0F002A16A0A431D
:103F10001A60616A5A6822F47F4242EA01225A60BA
:103F2000236813F0010F00F0B580082D00F0AE807B
:103F30000C2D00F0A8804FF0B042136823F48013DA
:103F4000A1680B4313606368B3F5803F00F0C48041
:103F5000B3F5041F00F0C5804FF0B0431A6822F497
:103F600080321A601A6822F400121A606368002B0B
:103F700000F0C28002F0CCFF07464FF0B0431B6850
:103F800013F4003F40F0868002F0C2FFC01B64289B
:103F9000F3D90320A9E2012E9BD1236A002B00F064
:103FA0009982A06A4FF0B0431B6813F0080F29D024
:103FB0004FF0B0431B6803F0F00398422AD9FFF793
:103FC000B9FE002840F088824FF0B0431A6842F0F2
:103FD00008021A601A6822F0F002A16A0A431A6005
:103FE000616A5A6822F47F4242EA01225A60FFF76E
:103FF0004BFFBA4B1860BA4B186801F001FD00285E
:104000008ED072E24FF0B043D3F894301B0903F026
:10401000F003D2E74FF0B0431A6842F008021A608A
:104020001A6822F0F002A16A0A431A60616A5A68AB
:1040300022F47F4242EA01225A60A06AFFF77AFE28
:104040000028D4D0012050E202F062FFC01B0228F9
:104050007FF64CAF032048E24FF0B042136823F0E4
:104060000103136002F054FF07464FF0B0431B6892
:1040700013F0020F3FF454AF02F04AFFC01B0228B6
:10408000F3D9032031E2032E7FF455AF6368002B90
:1040900000F02482236813F0020F56D0042D3DD087
:1040A0000C2D39D02369002B00F08A804FF0B042EC
:1040B000136843F48073136002F02AFF06464FF042
:1040C000B0431B6813F4806F36D102F021FF801BD0
:1040D0000228F4D9032008E2136843F48033136004
:1040E00044E74FF0B0431A6842F400121A601A68AD
:1040F00042F480321A6039E702F00AFF07464FF0B7
:10410000B0431B6813F4003FC4D002F001FFC01B92
:104110006428F4D90320E8E1022EC3D12369002BDF
:1041200000F0DE8161694FF0B042536823F0FE4336
:1041300043EA0163536008E061694FF0B04253689D
:1041400023F0FE4343EA01635360236813F0080F32
:104150007ED0A369002B62D04FF0B043D3F89430E7
:10416000E16903F01002914211D003F00302022A28
:1041700000F0B88113F0010F38D14FF0B042D2F8FF
:10418000943023F01003E1690B43C2F894304FF0F0
:10419000B042D2F8943043F00103C2F8943002F0F8
:1041A000B7FE06464FF0B043D3F8943013F0020F39
:1041B0004ED102F0ADFE801B1128F3D9032094E10B
:1041C0004FF0B042136823F48073136002F0A0FE36
:1041D00006464FF0B0431B6813F4806FB5D002F071
:1041E00097FE801B0228F4D903207EE14FF0B042F5
:1041F000D2F8943023F00103C2F8943002F088FE24
:1042000006464FF0B043D3F8943013F0020FB4D009
:1042100002F07EFE801B1128F3D9032065E14FF0E8
:10422000B042D2F8943023F00103C2F8943002F087
:104230006FFE06464FF0B043D3F8943013F0020FF0
:1042400006D002F065FE801B1128F3D903204CE153
:10425000236813F0040F00F0B880224B1B6813F49E
:10426000807F10D1FFF7F8FC02F052FE06461D4B8E
:104270001B6813F4807F06D102F04AFE801B0228DF
:10428000F5D9032031E1E368002B68D0852B01D0FC
:10429000052B07D14FF0B042D2F8903043F0040321
:1042A000C2F8903002F034FE06464FF0B042D2F829
:1042B000903043F00103C2F890304FF0B043D3F890
:1042C000903013F0020F0FD102F022FE801B41F25A
:1042D00088339842F1D9032007E100BF0C00002089
:1042E0000800002000040058E368812B01D0852BD2
:1042F0001AD102F00DFE06464FF0B042D2F89030CF
:1043000043F08003C2F890304FF0B043D3F89030C0
:1043100013F4006F59D102F0FBFD801B41F288338A
:104320009842F1D90320E0E002F0F2FD06464FF09A
:10433000B042D2F8903023F08003C2F890304FF0B2
:10434000B043D3F8903013F4006F3ED002F0E0FD9C
:10435000801B41F288339842F1D90320C5E002F076
:10436000D7FD06464FF0B042D2F8903023F08003DC
:10437000C2F890304FF0B043D3F8903013F4006F90
:1043800008D002F0C5FD801B41F288339842F1D974
:104390000320AAE002F0BCFD06464FF0B042D2F87E
:1043A000903023F00103C2F890304FF0B043D3F8BF
:1043B000903013F0020F08D002F0AAFD801B41F2EA
:1043C00088339842F1D903208FE0E36A002B00F094
:1043D0008B800C2D60D0022B16D04FF0B0421368AA
:1043E00023F08073136002F093FD04464FF0B04356
:1043F0001B6813F0007F48D14FF0B042D168414BA9
:104400000B40D360002070E04FF0B042136823F0FF
:104410008073136002F07CFD05464FF0B0431B68CB
:1044200013F0007F2AD14FF0B042D36836491940CB
:10443000236B606B0343A06B43EA0023E06B0343F1
:10444000206C0343606C03431943D160136843F04D
:1044500080731360D36843F08053D36002F058FD3B
:1044600004464FF0B0431B6813F0007F3ED102F0CA
:104470004FFD001B0A28F4D9032036E002F048FD66
:10448000401B0A28C9D903202FE002F041FD001B80
:104490000A28ABD9032028E0012B29D04FF0B043E4
:1044A000DB6803F00301226B914223D103F0700219
:1044B000616B8A4220D103F4FE42A16BB2EB012F63
:1044C0001CD103F06043626C934219D100200CE0D0
:1044D00001207047012008E0012006E0012004E0EF
:1044E000012002E0012000E00020F8BD0020FCE7F0
:1044F0000120FAE70120F8E70120F6E70120F4E7C0
:104500000120F2E7FCFFFEEE8C80C111002800F0D4
:10451000048170B50C460546824B1B6803F0070307
:104520008B4227D32B6813F0020F39D12B6813F07D
:10453000400F4DD12B6813F0040F65D12B6813F099
:10454000080F79D12B6813F0010F00F0C1806B6860
:10455000022B00F08B80032B00F09080002B40F0AA
:1045600095804FF0B042126812F0020F40F0948034
:104570000120D1E06B4A136823F007030B4313605B
:1045800002F0C6FC0646674B1B6803F00703A34214
:10459000C8D002F0BDFC801B0228F4D90320BBE088
:1045A000AB684FF0B0418A6822F0F00213438B6091
:1045B00002F0AEFC06464FF0B0439B6813F4803F18
:1045C000B4D102F0A5FC801B0228F4D90320A3E09B
:1045D00069694FF0B042D2F8083123F00F0343EA83
:1045E0001113C2F8083102F093FC06464FF0B043B5
:1045F000D3F8083113F4803F9CD102F089FC801B72
:104600000228F3D9032087E0EB684FF0B0418A68B5
:1046100022F4E06213438B6002F07AFC06464FF00E
:10462000B0439B6813F4003F88D102F071FC801BFB
:104630000228F4D903206FE029694FF0B042936853
:1046400023F4605343EAC103936002F061FC064621
:104650004FF0B0439B6813F4802F7FF473AF02F0E8
:1046600057FC801B0228F3D9032055E04FF0B042DD
:10467000126812F4003F0FD101204DE04FF0B0421C
:10468000126812F0007F07D1012045E04FF0B042E0
:10469000126812F4806F42D04FF0B0418A6822F065
:1046A000030213438B6002F033FC06464FF0B04325
:1046B0009B6803F00C036A68B3EB820F08D002F02A
:1046C00027FC801B41F288339842EFD9032023E076
:1046D000144B1B6803F00703A34215D9114A136852
:1046E00023F007032343136002F012FC05460D4B31
:1046F0001B6803F00703A34206D002F009FC401B2D
:104700000228F4D9032007E0FFF7BEFB064B186030
:10471000064B186801F074F970BD01207047012044
:10472000FAE700BF004000580C00002008000020FD
:1047300008B5FFF7A9FB4FF0B0439B68C3F3022312
:10474000024A52F82330D84008BD00BF0487000851
:1047500008B5FFF799FB4FF0B0439B68C3F3C22342
:10476000024A52F82330D84008BD00BF0487000831
:10477000F8B10346E9B110B44F2202604FF0B040E7
:10478000826802F00C045C6002F0F0049C6002F4A9
:10479000E064DC6002F460521A61D0F80821120172
:1047A000D2B25A61034B1B6803F007030B6010BCC5
:1047B00070477047004000584FF0B041D1F8883042
:1047C000020902F47F2223EA0203000100F47F20A1
:1047D0000343C1F88830704770B50446036813F48A
:1047E000803F40F0AA800025236813F0010F0AD013
:1047F00062684FF0B041D1F8883023EA124392B298
:104800001343C1F88830236813F0020F0AD0A2685E
:104810004FF0B041D1F8883023EA124392B21343EB
:10482000C1F88830236813F0200F09D023694FF0B6
:10483000B041D1F8882022F440621343C1F8883097
:10484000236813F4007F0CD0216A4FF0B042D2F8F5
:104850008830080C000423EA000343EA0143C2F84D
:104860008830236813F4806F0CD0616A4FF0B04237
:10487000D2F88830080C000423EA000343EA01431D
:10488000C2F88830236813F4006F0CD0A16A4FF08F
:10489000B042D2F88830080C000423EA000343EA4F
:1048A0000143C2F88830236813F0400F40F09B802A
:1048B000236813F0800F40F09A80236813F4807F00
:1048C00040F09980236813F0100F0ED0E3684FF08A
:1048D000B041D1F8882022F440721343C1F88830E7
:1048E000E368B3F5807F00F08A80236813F4004FFB
:1048F0000FD0236B4FF0B041D1F8882022F0404216
:104900001343C1F88830236B1BB9CB6843F0807325
:10491000CB60236813F4804F0DD0E36A4FF0B041B1
:10492000D1F8882022F040521343C1F88830E36A5E
:10493000B3F1005F68D0284670BDFFF78DF902F033
:10494000E7FA0546334B1B6813F4807F06D102F06B
:10495000DFFA401B0228F5D9032500E00025002DD1
:104960007FF442AF4FF0B043D3F8903003F440737C
:10497000626B9A4216D04FF0B043D3F8901021F4F6
:104980004070D3F8902042F48032C3F89020D3F8DE
:10499000902022F48032C3F89020C3F8900011F0E8
:1049A000020F0DD1002D7FF41FAF636B4FF0B041AC
:1049B000D1F8902022F440721343C1F8903013E7ED
:1049C00002F0A6FA06464FF0B043D3F8903013F049
:1049D000020FE7D102F09CFA831B41F28832934226
:1049E000F1D90325DEE76069FFF7E6FE60E7A0691D
:1049F000FFF7E2FE61E7E069FFF7DEFE62E7CB6802
:104A000043F08073CB6070E7CB6843F48033CB60B6
:104A100091E700BF00040058034690F82C20012ABB
:104A200035D0012280F82C20022280F82D20194A4E
:104A3000CA20506253205062B1F5807F18D0154AC9
:104A4000916921F408519161D16C21F00041D16448
:104A5000196B21F0020119630221D1650D4AFF2172
:104A60005162012283F82D20002083F82C0070472A
:104A7000916921F488519161516C21F00041516498
:104A8000196B21F0010119630121D165E6E70220CC
:104A9000704700BF0028004010B50B4AD36823F0D0
:104AA0002003D36002F034FA0446074BDB6813F0AE
:104AB000200F07D102F02CFA001BB0F57A7FF4D951
:104AC000032000E0002010BD0028004070B5114B0D
:104AD000DB6813F0400F02D00024204670BD06466C
:104AE0000C4AD36843F08003D36002F011FA054604
:104AF0000024084BDB6813F0400FEED1032CECD000
:104B000002F006FA431BB3F57A7FF2D9032486F844
:104B10002D40EEE70028004010B50446104BDA683F
:104B200022F08002DA609B6913F0200F06D1FFF7B4
:104B3000B3FF98B1032084F82D000FE0084A936971
:104B400023F020039361FFF7A7FF10B1032084F83F
:104B50002D00034A936943F02003936110BD00BF09
:104B60000028004000285ED038B5044690F82D306B
:104B700083B1022384F82D302C4BDB6813F0100F27
:104B80004CD12A4BDB6803F44073B3F5807F06D128
:104B9000002044E080F82C30FEF79AFFE9E7234B31
:104BA000CA225A6253225A622046FFF78FFF18B179
:104BB0001E4BFF225A6235E01C4B9A6922F08E622E
:104BC00022F040029A619969626820690243A069F3
:104BD00002430A439A61E268A16842EA01421A610B
:104BE000DA6822F4F852616AA06A01430A43DA6083
:104BF0002046FFF791FF18B10C4BFF225A6211E0DB
:104C00000A498B6923F06043226AE5692A43656992
:104C10002A4313438B61FF234B6200E000200123F2
:104C200084F82D3038BD0120704700BF00280040B7
:104C3000002302E001330A38C0B20928FAD81B0168
:104C4000DBB218437047000090F82C30012B63D082
:104C500070B504460D461646012380F82C30022319
:104C600080F82D302D4BCA225A6253225A62FFF728
:104C70002DFF002830D1294BDB6803F44073B3F5D6
:104C8000807F29D0002E35D1244B9B6913F0400F33
:104C900001D10023EB702878FFF7CAFF060468787B
:104CA000FFF7C6FF46EA0026A878FFF7C1FF46EAED
:104CB0000003EA7843EA825303F07F3323F0FE4394
:104CC000164A1360936923F4802393619369E9681A
:104CD000286901430B4393612046FFF71DFF0F4AEC
:104CE000FF21516210B9012384F82D30002384F88C
:104CF0002C3070BD094B9B6913F0400F01D100238C
:104D0000EB702A786B781B0243EA0243AA781343BC
:104D1000EA7843EA8253CFE7022070470028004038
:104D200090F82C30012B4DD070B505460E4601236E
:104D300080F82C30022380F82D30CAB1CB784C7823
:104D4000240244EA03448B781C430B7844EA43343E
:104D50001D4BCA225A6253225A622846FFF7B6FEFA
:104D6000F8B1194BFF225A62002385F82C3070BD30
:104D70004B7813F0100F03D003F0EF030A334B709E
:104D8000F078FFF755FF04047078FFF751FF44EA0D
:104D90000024B078FFF74CFF0443337844EA4334EF
:104DA000D6E724F07F4424F0C004074E7460284600
:104DB000FFF7B2FEFF2272620028D5D1012385F8E9
:104DC0002D30D1E7022070470028004090F82C30A9
:104DD000012B00F0A9802DE9F04105460C46012386
:104DE00080F82C30022380F82D30504BDE6806F41A
:104DF0004076B6F5807F43D012BB9B6913F0400F1D
:104E000001D10023CB70D4F814802078FFF710FF75
:104E100007046078FFF70CFF47EA0027A078FFF748
:104E200007FF0743E37847EA835794F82400FFF726
:104E3000FFFE47EA0060236A184348EA000020E0CA
:104E40004869B0F1803F09D0B0F5000F06D0374B6C
:104E50009B6913F0400F01D10023CB702278637857
:104E60001B0243EA0243A2781343E27843EA8253E7
:104E700094F8242043EA0263226A1343184300E0B3
:104E800000202A4BCA225A6253225A62A36AB3F5FF
:104E9000807F23D0254B9A6922F408529A6102221E
:104EA000DA65B6F5807F39D0204B9864A269DA6460
:104EB00062681E4B5A672A6B42F002022A639A69A3
:104EC00042F400729A61194BFF225A62012385F85D
:104ED0002D30002085F82C00BDE8F081134B9A6935
:104EE00022F488529A610122DA65B6F5807F0FD0EC
:104EF0000E4B1864A2695A6462680C4B1A672A6BDD
:104F000042F001022A639A6942F480729A61DAE7F8
:104F1000A369E2691343054A5364EDE7A369E269B3
:104F20001343024AD364C3E70220704700280040BD
:104F300090F82C30012B00F0B0802DE9F0410546AF
:104F40000C46012380F82C30022380F82D30544B7E
:104F5000DE6806F44076B6F5807F43D012BB9B69CD
:104F600013F0400F01D10023CB70D4F814802078C7
:104F7000FFF75EFE07046078FFF75AFE47EA002756
:104F8000A078FFF755FE0743E37847EA835794F884
:104F90002400FFF74DFE47EA0060236A184348EA01
:104FA000000020E04869B0F1803F09D0B0F5000F63
:104FB00006D03B4B9B6913F0400F01D10023CB700F
:104FC000227863781B0243EA0243A2781343E27813
:104FD00043EA825394F8242043EA0263226A13438B
:104FE000184300E000202E4BCA225A6253225A6214
:104FF000A36AB3F5807F2AD0294B9A6922F408521C
:105000009A610222DA65B6F5807F40D0244B98641D
:10501000A269DA646268224B5A672A6B42F0020284
:105020002A639A6942F408529A611E4AD2F8803083
:1050300043F40033C2F88030194BFF225A62012337
:1050400085F82D30002085F82C00BDE8F081144B48
:105050009A6922F488529A610122DA65B6F5807F56
:105060000FD00F4B1864A2695A6462680C4B1A6720
:105070002A6B42F001022A639A6942F488529A61CB
:10508000D3E7A369E2691343054A5364EDE7A369D3
:10509000E2691343024AD364BCE70220704700BFB1
:1050A000002800400008005890F82C30012B17D041
:1050B000012180F82C10022380F82D30094BCA22E0
:1050C0005A6253225A629A6942F020029A61FF2280
:1050D0005A6280F82D10002380F82C301846704753
:1050E0000220704700280040890001F1804101F54D
:1050F00031410A6070470000074B1A6822F04002F5
:105100001A6040F4417018604FF4B8525A601A683F
:1051100042F040021A6070470000015830B583B079
:1051200000285DD00446837903F0FF050BB1032D01
:105130000BD1002363712046FEF7FAFC294AD2F80E
:10514000903043F48053C2F8903085B1264B4FF431
:1051500000629A6100252068FFF7CEFF01232371CA
:105160000023A3600123A371284603B030BD0223AE
:10517000A3714FF0B042D2F8943023F40043C2F848
:1051800094301A4B1B68C3EBC303C3F34C43642234
:1051900002FB03F3019314E00125A560124BD3F841
:1051A000902042F40042C3F890209A6842F40062D2
:1051B0009A604FF400629A61002DD3D1CBE7002BA7
:1051C000ECD0019B002BE7D0019B013B01934FF0FA
:1051D000B043D3F8943013F48043F0D00123EEE7CA
:1051E0000125C1E700080058000400580C00002009
:1051F00082B002461A4B1B68C3EBC303C3F34C4394
:10520000642000FB03F30193019B4BB1019B013B25
:105210000193144B9B6813F0020FF5D0002001E0BE
:10522000012090600F4B19730D4B1B68C3EBC30338
:10523000C3F34C43642101FB03F30193019B43B18E
:10524000019B013B0193074B9B6813F0010FF5D0C5
:1052500001E001209060034BDB6802B0704700BFA3
:105260000C0000200000015882B002461C4B1B6855
:10527000C3EBC303C3F34C43642000FB03F301936C
:10528000019B4BB1019B013B0193164B9B6813F0B3
:10529000020FF5D0002001E001209060114B4FF08B
:1052A000FF0C83F80CC00E4B1B68C3EBC303C3F3A6
:1052B0004C434FF0640C0CFB03F30193019B43B18F
:1052C000019B013B0193074B9B6813F0010FF5D045
:1052D00001E001209060034BDB680B7002B0704767
:1052E0000C0000200000015882B0134B1B6803EB38
:1052F0004303C3F34B43642202FB03F3019306E031
:1053000002238360012002B07047134212D00B4B7E
:105310005B6913F0040300D00123019A002AEFD047
:10532000019A013A0192054A526912F00202ECD048
:105330000122EAE70020E6E70C0000200004005804
:1053400000B583B00379012B04D0FFF7CDFF03B084
:105350005DF804FB0B4B5B8801930B4AD2F890304D
:1053600023F40043C2F89030019B013B0193019B61
:10537000002BF9D1044AD2F8903043F40043C2F82C
:105380009030E2E70C000020000400582DE9F041C5
:105390001E468379012B3FD105460C4617465FFA1E
:1053A00083F84379012B3AD001234371022383719F
:1053B000FFF7C6FF1B4AD2F8903023F40043C2F82F
:1053C00090300D212846FFF713FF210A2846FFF7EA
:1053D0000FFFE1B22846FFF70BFF002405E0395D1F
:1053E0002846FFF705FF0134A4B2B442F7D30D4AB3
:1053F000D2F8903043F40043C2F890302846FFF7CB
:1054000073FFAB680BB94FF000080123AB710023A9
:105410006B714046BDE8F0814FF00208F9E74FF0AC
:105420000208F6E7000400582DE9F0411E46837992
:10543000012B42D107460C4615465FFA83F84379A3
:10544000012B3DD001234371FFF77AFF1E4AD2F8AA
:10545000903023F40043C2F890301D213846FFF706
:10546000C7FE210A3846FFF7C3FEE1B23846FFF710
:10547000BFFE00213846FFF7BBFE002406E02946A8
:105480003846FFF7F1FE01350134A4B2B442F6D339
:105490000D4AD2F8903043F40043C2F890303846B9
:1054A000FFF722FFBB680BB94FF000080123BB7167
:1054B00000237B714046BDE8F0814FF00208F9E718
:1054C0004FF00208F6E700BF000400582DE9F8434A
:1054D0001E468379012B44D10546884617465FFA5C
:1054E00083F94379012B3FD001234371FFF728FF54
:1054F000B8F1840F05D0B8F1940F02D000232B71BE
:1055000001E001232B711A4AD2F8903023F40043B2
:10551000C2F8903041462846FFF76AFE002405E0B5
:10552000395D2846FFF764FE0134A4B2B442F7D3D4
:105530000F4AD2F8903043F40043C2F89030B8F1EB
:10554000840F0AD1AB680BB94FF000090123AB718E
:1055500000236B714846BDE8F8832846FFF7C4FE78
:10556000F0E74FF00209F5E74FF00209F2E700BF5C
:10557000000400582DE9F0411E468379012B3AD1F1
:1055800007460C4615465FFA83F84379012B35D060
:1055900001234371FFF7D4FE1A4AD2F8903023F466
:1055A0000043C2F8903021463846FFF721FE002123
:1055B0003846FFF71DFE002406E029463846FFF76F
:1055C00053FE01350134A4B2B442F6D30D4AD2F8E9
:1055D000903043F40043C2F890303846FFF784FE21
:1055E000BB680BB94FF000080123BB7100237B712E
:1055F0004046BDE8F0814FF00208F9E74FF002089D
:10560000F6E700BF000400582DE9F0411E468379FB
:10561000012B39D105460C4617465FFA83F84379CA
:10562000012B34D001234371FFF78AFE194AD2F8C7
:10563000903023F40043C2F890300E212846FFF743
:10564000D7FD21462846FFF7D3FD002405E0395D4C
:105650002846FFF7CDFD0134A4B2B442F7D30D4A7A
:10566000D2F8903043F40043C2F890302846FFF758
:105670003BFEAB680BB94FF000080123AB71002370
:105680006B714046BDE8F0814FF00208F9E74FF03A
:105690000208F6E7000400582DE9F0411E46837920
:1056A000012B3ED107460C4615465FFA83F8437935
:1056B000012B39D001234371FFF742FE1C4AD2F877
:1056C000903023F40043C2F890301E213846FFF793
:1056D0008FFD21463846FFF78BFD00213846FFF746
:1056E00087FD002406E029463846FFF7BDFD013559
:1056F0000134A4B2B442F6D30D4AD2F8903043F448
:105700000043C2F890303846FFF7EEFDBB680BB996
:105710004FF000080123BB7100237B714046BDE8B8
:10572000F0814FF00208F9E74FF00208F6E700BFFA
:10573000000400587047000090F83D30012B22D142
:10574000022380F83D300268D36843F00103D36040
:105750000368104A934208D0B3F1804F05D01A680D
:1057600042F001021A600020704799680A4A0A4014
:10577000062A0AD0B2F5803F09D01A6842F0010229
:105780001A600020704701207047002070470020F9
:10579000704700BF002C01400700010070477047B0
:1057A0007047704770B504460368DE681D6915F0E0
:1057B000020F10D016F0020F0DD06FF002021A6126
:1057C0000123037703689B6913F0030F64D0FFF78D
:1057D000E6FF0023237715F0040F12D016F0040F14
:1057E0000FD023686FF004021A6102232377236825
:1057F0009B6913F4407F55D02046FFF7D0FF00236C
:10580000237715F0080F12D016F0080F0FD0236879
:105810006FF008021A61042323772368DB6913F011
:10582000030F46D02046FFF7BAFF0023237715F079
:10583000100F12D016F0100F0FD023686FF0100267
:105840001A61082323772368DB6913F4407F37D07C
:105850002046FFF7A4FF0023237715F0010F02D0A5
:1058600016F0010F33D115F4025F02D016F0800F4D
:1058700035D115F4807F02D016F0800F37D115F0A6
:10588000400F02D016F0400F39D115F0200F02D092
:1058900016F0200F3BD170BDFFF780FF2046FFF7C9
:1058A0007FFF96E72046FFF779FF2046FFF778FF56
:1058B000A5E72046FFF772FF2046FFF771FFB4E728
:1058C0002046FFF76BFF2046FFF76AFFC3E7236818
:1058D0006FF001021A612046FAF716FFC3E723684A
:1058E0006FF402521A61204600F087F8C1E723687E
:1058F0006FF480721A61204600F080F8BFE72368D9
:105900006FF040021A612046FFF74BFFBDE72368A6
:105910006FF020021A61204600F06EF8BBE700002D
:1059200003681C4A904202D0B0F1804F03D123F0AB
:1059300070034A681343174A90420AD0B0F1804F6F
:1059400007D002F5C052904203D002F58062904227
:1059500003D123F44073CA68134323F080034A69D8
:1059600013438A68C2620A6882620A4A904207D078
:1059700002F5C052904203D002F58062904201D1FC
:105980000A690263026842F0040202600122426175
:1059900003607047002C014060B310B5044690F8D6
:1059A0003D3013B3022384F83D30214651F8040BF7
:1059B000FFF7B6FF012384F8483084F83E3084F8BE
:1059C0003F3084F8403084F8413084F8423084F825
:1059D000433084F8443084F8453084F8463084F805
:1059E000473084F83D30002010BD80F83C30FFF790
:1059F000A1FED7E70120704770477047704700004D
:105A000030B589B004464FF0B0431A6E42F480229C
:105A10001A661B6E03F480230093009B01A902A861
:105A2000FEF7A6FEFEF794FE154AA2FB00239B0C90
:105A3000013B1448144A026040F2E732C2604360FE
:105A4000002303618360FFF7A7FF054610B12846D6
:105A500009B030BD0B48FFF76FFE05460028F6D1B0
:105A60001D20FDF761FC0F2C01D90125EFE7002275
:105A700021461D20FDF748FC044B1C60E7E700BFF2
:105A800083DE1B43484D00200048014008000020F1
:105A9000026852E8003F23F0C00342E800310029C9
:105AA000F6D1026802F1080353E8003F23F4000333
:105AB000083242E800310029F3D12023C0F88830B1
:105AC0007047026852E8003F23F4907342E80031C7
:105AD0000029F6D1026802F1080353E8003F23F0E1
